:100000000C942A000C943F000C943F000C943F0089
:100010000C943F000C943F000C943F000C943F0064
:100020000C943F000C943F000C943F000C943F0054
:100030000C943F000C943F000C943F000C943F0044
:100040000C943F000C943F000C943F000C943F0034
:100050000C943F0011241FBECFE5D8E0DEBFCDBF1A
:1000600010E0A0E6B0E0ECEFF6E002C005900D92E3
:10007000AE36B107D9F70E9456030C947C030C945A
:1000800000004F3FD1F58230B9F0833020F4813049
:1000900009F071C006C08330D1F0843009F06BC024
:1000A00021C02AB381E090E002C0880F991F6A95B1
:1000B000E2F7282B2ABB089527B381E090E002C025
:1000C000880F991F6A95E2F7282B27BB089524B360
:1000D00081E090E002C0880F991F6A95E2F7282B13
:1000E00024BB089521B381E090E002C0880F991FDE
:1000F0006A95E2F7282B21BB0895442309F03BC001
:100100008230B1F0833018F48130A9F505C0833016
:10011000D9F0843081F524C02AB381E090E002C098
:10012000880F991F6A95E2F7809582238ABB08950C
:1001300027B381E090E002C0880F991F6A95E2F72B
:100140008095822387BB089524B381E090E002C0AC
:10015000880F991F6A95E2F78095822384BB0895E2
:1001600021B381E090E002C0880F991F6A95E2F701
:100170008095822381BB08954130D1F58230B9F05A
:10018000833020F4813009F071C006C08330D1F093
:10019000843009F06BC021C02BB381E090E002C035
:1001A000880F991F6A95E2F7282B2BBB089528B377
:1001B00081E090E002C0880F991F6A95E2F7282B32
:1001C00028BB089525B381E090E002C0880F991FF5
:1001D0006A95E2F7282B25BB089522B381E090E0D1
:1001E00002C0880F991F6A95E2F7282B22BB089559
:1001F000442309F03BC08230B1F0833018F48130E1
:10020000A9F505C08330D9F0843081F524C02BB323
:1002100081E090E002C0880F991F6A95E2F780950F
:1002200082238BBB089528B381E090E002C0880F41
:10023000991F6A95E2F78095822388BB089525B3BC
:1002400081E090E002C0880F991F6A95E2F78095DF
:10025000822385BB089522B381E090E002C0880F1D
:10026000991F6A95E2F78095822382BB08958230B8
:1002700061F0833018F48130D9F405C0833039F04F
:100280008430B1F40DC089B303C086B301C083B319
:1002900090E002C0959587956A95E2F78170089580
:1002A00080B390E002C0959587956A95E2F78170DA
:1002B00008958230A9F0833018F4813089F505C0A3
:1002C0008330C9F0843061F521C02BB381E090E028
:1002D00002C0880F991F6A95E2F728272BBB089563
:1002E00028B381E090E002C0880F991F6A95E2F779
:1002F000282728BB089525B381E090E002C0880F2D
:10030000991F6A95E2F7282725BB089522B381E05B
:1003100090E002C0880F991F6A95E2F7282722BB58
:100320000895823061F0833018F4813069F405C09B
:10033000833039F0843041F406C06BBB089568BB4C
:10034000089565BB089562BB0895823061F08330E3
:1003500018F4813069F405C0833039F0843041F4F9
:1003600006C06ABB089567BB089564BB089561BB6E
:100370000895823099F0833018F4813051F505C02A
:100380008330A9F0843029F51BC0662319F48AB3A1
:100390008F7002C08AB3806F8ABB0895662319F4F8
:1003A00087B38F7002C087B3806F87BB08956623C1
:1003B00019F484B38F7002C084B3806F84BB089536
:1003C000662321F481B38F7081BB089581B3806F60
:1003D00081BB0895823099F0833018F4813051F553
:1003E00005C08330A9F0843029F51BC0662319F4B9
:1003F0008AB3807F02C08AB38F608ABB0895662368
:1004000019F487B3807F02C087B38F6087BB0895DC
:10041000662319F484B3807F02C084B38F6084BBE9
:100420000895662321F481B3807F81BB089581B351
:100430008F6081BB0895823099F0833018F4813049
:1004400051F505C08330A9F0843029F51BC066231F
:1004500019F48BB38F7002C08BB3806F8BBB089580
:10046000662319F488B38F7002C088B3806F88BB8D
:100470000895662319F485B38F7002C085B3806F29
:1004800085BB0895662321F482B38F7082BB0895E3
:1004900082B3806F82BB0895823099F0833018F464
:1004A000813051F505C08330A9F0843029F51BC097
:1004B000662319F48BB3807F02C08BB38F608BBB34
:1004C0000895662319F488B3807F02C088B38F60D3
:1004D00088BB0895662319F485B3807F02C085B375
:1004E0008F6085BB0895662321F482B3807F82BB31
:1004F000089582B38F6082BB08950F931F93182FC6
:1005000084E060E041E00E94BC0084E061E040E003
:100510000E94BC0083E0612F0E94910184E062E0B0
:1005200041E00E94BC0000ED17E0C8010197F1F71F
:1005300084E062E040E00E94BC00C8010197F1F74E
:100540001F910F9108951F93282F10E03AE00CC0DF
:10055000139F102D1124822F6AE00E947003190F3F
:10056000822F0E947003282F222391F70DC0812F24
:100570006AE00E947003292F812F0E947003182FB8
:10058000822F805D0E947D02112389F71F910895BB
:10059000EF92FF921F93CF93DF93EC0110E088EC72
:1005A000E82EF12C0AC00E947D0280ED97E0F70151
:1005B0003197F1F70197D9F71F5FFE01E10FF11DA8
:1005C0008081882381F7DF91CF911F91FF90EF9079
:1005D00008950F931F93182F84E060E040E00E947D
:1005E000BC0084E061E040E00E94BC0083E0612F39
:1005F0000E94910184E062E041E00E94BC0000EDB5
:1006000017E0C8010197F1F784E062E040E00E9442
:10061000BC00C8010197F1F71F910F91089588233D
:1006200029F4862F80580E94E9020895813021F430
:10063000862F80540E94E90208950F931F9383E050
:100640006FEF0E94A50184E060E04FEF0E9441003F
:1006500084E061E04FEF0E94410084E062E04FEFF0
:100660000E94410080E991E028EC30E0F9013197E7
:10067000F1F70197D9F788E390E00E94E90200EDD5
:1006800017E0C8010197F1F78FE090E00E94E902BE
:10069000C8010197F1F781E090E00E94E90280EA49
:1006A0009FE00197F1F71F910F910895DF93CF938A
:1006B000CDB7DEB72E970FB6F894DEBF0FBECDBF15
:1006C0000E941D03DE011196E0E6F0E08EE001904D
:1006D0000D928150E1F7CE0101960E94C802FFCF32
:1006E000991B79E004C0991F961708F0961B881F84
:0C06F0007A95C9F780950895F894FFCF23
:0E06FC0048656C6C6F2C20576F726C64210087
:00000001FF
