:100000000C942A000C943F000C943F000C943F0089
:100010000C943F000C943F000C943F000C943F0064
:100020000C943F000C943F000C943F000C943F0054
:100030000C943F000C943F000C943F000C943F0044
:100040000C943F000C943F000C943F000C943F0034
:100050000C943F0011241FBECFE5D8E0DEBFCDBF1A
:1000600010E0A0E6B0E0ECE7F4E002C005900D92ED
:10007000AE36B107D9F70E9416020C943C020C94DC
:1000800000004130B1F5813099F0813030F082309C
:10009000D1F0833009F067C021C02AB381E090E03D
:1000A00002C0880F991F6A95E2F7282B2ABB089592
:1000B00027B381E090E002C0880F991F6A95E2F7AC
:1000C000282B27BB089524B381E090E002C0880F5D
:1000D000991F6A95E2F7282B24BB089521B381E08C
:1000E00090E002C0880F991F6A95E2F7282B21BB88
:1000F00008954423C1F5813099F0813028F0823091
:10010000D9F0833081F524C02AB381E090E002C0A9
:10011000880F991F6A95E2F7809582238ABB08951C
:1001200027B381E090E002C0880F991F6A95E2F73B
:100130008095822387BB089524B381E090E002C0BC
:10014000880F991F6A95E2F78095822384BB0895F2
:1001500021B381E090E002C0880F991F6A95E2F711
:100160008095822381BB08954130B1F5813099F0AB
:10017000813030F08230D1F0833009F067C021C087
:100180002BB381E090E002C0880F991F6A95E2F7D7
:10019000282B2BBB089528B381E090E002C0880F84
:1001A000991F6A95E2F7282B28BB089525B381E0B3
:1001B00090E002C0880F991F6A95E2F7282B25BBB3
:1001C000089522B381E090E002C0880F991F6A95DC
:1001D000E2F7282B22BB08954423C1F5813099F022
:1001E000813028F08230D9F0833081F524C02BB3E0
:1001F00081E090E002C0880F991F6A95E2F7809530
:1002000082238BBB089528B381E090E002C0880F61
:10021000991F6A95E2F78095822388BB089525B3DC
:1002200081E090E002C0880F991F6A95E2F78095FF
:10023000822385BB089522B381E090E002C0880F3D
:10024000991F6A95E2F78095822382BB08950895ED
:100250000895813049F0813028F0823039F08330C0
:1002600041F406C06BBB089568BB089565BB089553
:1002700062BB0895813049F0813028F0823039F036
:10028000833041F406C06ABB089567BB089564BB20
:10029000089561BB08950F931F93182F83E060E0CA
:1002A00041E00E94B40083E061E040E00E94B400BD
:1002B00082E0612F0E94290183E062E041E00E9418
:1002C000B40000ED17E0C8010197F1F783E062E0A8
:1002D00040E00E94B400C8010197F1F71F910F910F
:1002E00008951F93282F10E03AE00CC0139F102DA3
:1002F0001124822F6AE00E943002190F822F0E947F
:100300003002282F222391F70DC0812F6AE00E942E
:100310003002292F812F0E943002182F822F805DFA
:100320000E944B01112389F71F910895EF92FF92CC
:100330001F93CF93DF93EC0110E088ECE82EF12CB3
:100340000AC00E944B0180ED97E0F7013197F1F769
:100350000197D9F71F5FFE01E10FF11D808188230E
:1003600081F7DF91CF911F91FF90EF9008950F9348
:100370001F93182F83E060E040E00E94B40083E008
:1003800061E040E00E94B40082E0612F0E942901F8
:1003900083E062E041E00E94B40000ED17E0C80194
:1003A0000197F1F783E062E040E00E94B400C801E9
:1003B0000197F1F71F910F9108950F931F9382E01A
:1003C0006FEF0E943A0183E060E041E00E9441004B
:1003D00083E061E041E00E94410083E062E041E0AF
:1003E0000E94410080E991E028EC30E0F90131976A
:1003F000F1F70197D9F788E390E00E94B70100ED8B
:1004000017E0C8010197F1F78FE090E00E94B70173
:10041000C8010197F1F781E090E00E94B70180EAFE
:100420009FE00197F1F71F910F910895DF93CF930C
:10043000CDB7DEB72E970FB6F894DEBF0FBECDBF97
:100440000E94DD01DE011196E0E6F0E08EE0019011
:100450000D928150E1F7CE0101960E949601FFCFE7
:10046000991B79E004C0991F961708F0961B881F06
:0C0470007A95C9F780950895F894FFCFA5
:0E047C0048656C6C6F2C20576F726C64210009
:00000001FF
